{
  "contractName": "LoanBit",
  "abi": [
    {
      "constant": true,
      "inputs": [],
      "name": "name",
      "outputs": [
        {
          "name": "",
          "type": "string"
        }
      ],
      "payable": false,
      "stateMutability": "view",
      "type": "function"
    },
    {
      "constant": false,
      "inputs": [
        {
          "name": "_spender",
          "type": "address"
        },
        {
          "name": "_value",
          "type": "uint256"
        }
      ],
      "name": "approve",
      "outputs": [
        {
          "name": "",
          "type": "bool"
        }
      ],
      "payable": false,
      "stateMutability": "nonpayable",
      "type": "function"
    },
    {
      "constant": true,
      "inputs": [],
      "name": "walletFacebook",
      "outputs": [
        {
          "name": "",
          "type": "address"
        }
      ],
      "payable": false,
      "stateMutability": "view",
      "type": "function"
    },
    {
      "constant": true,
      "inputs": [],
      "name": "totalSupply",
      "outputs": [
        {
          "name": "",
          "type": "uint256"
        }
      ],
      "payable": false,
      "stateMutability": "view",
      "type": "function"
    },
    {
      "constant": true,
      "inputs": [],
      "name": "tokenTeam",
      "outputs": [
        {
          "name": "",
          "type": "uint256"
        }
      ],
      "payable": false,
      "stateMutability": "view",
      "type": "function"
    },
    {
      "constant": false,
      "inputs": [
        {
          "name": "_from",
          "type": "address"
        },
        {
          "name": "_to",
          "type": "address"
        },
        {
          "name": "_value",
          "type": "uint256"
        }
      ],
      "name": "transferFrom",
      "outputs": [
        {
          "name": "",
          "type": "bool"
        }
      ],
      "payable": false,
      "stateMutability": "nonpayable",
      "type": "function"
    },
    {
      "constant": true,
      "inputs": [],
      "name": "decimals",
      "outputs": [
        {
          "name": "",
          "type": "uint256"
        }
      ],
      "payable": false,
      "stateMutability": "view",
      "type": "function"
    },
    {
      "constant": true,
      "inputs": [],
      "name": "tokenFacebook",
      "outputs": [
        {
          "name": "",
          "type": "uint256"
        }
      ],
      "payable": false,
      "stateMutability": "view",
      "type": "function"
    },
    {
      "constant": true,
      "inputs": [],
      "name": "tokenDev",
      "outputs": [
        {
          "name": "",
          "type": "uint256"
        }
      ],
      "payable": false,
      "stateMutability": "view",
      "type": "function"
    },
    {
      "constant": false,
      "inputs": [
        {
          "name": "_value",
          "type": "uint256"
        }
      ],
      "name": "burn",
      "outputs": [],
      "payable": false,
      "stateMutability": "nonpayable",
      "type": "function"
    },
    {
      "constant": true,
      "inputs": [],
      "name": "walletBlogs",
      "outputs": [
        {
          "name": "",
          "type": "address"
        }
      ],
      "payable": false,
      "stateMutability": "view",
      "type": "function"
    },
    {
      "constant": true,
      "inputs": [],
      "name": "walletICO",
      "outputs": [
        {
          "name": "",
          "type": "address"
        }
      ],
      "payable": false,
      "stateMutability": "view",
      "type": "function"
    },
    {
      "constant": true,
      "inputs": [],
      "name": "walletTwitter",
      "outputs": [
        {
          "name": "",
          "type": "address"
        }
      ],
      "payable": false,
      "stateMutability": "view",
      "type": "function"
    },
    {
      "constant": true,
      "inputs": [],
      "name": "walletTeam",
      "outputs": [
        {
          "name": "",
          "type": "address"
        }
      ],
      "payable": false,
      "stateMutability": "view",
      "type": "function"
    },
    {
      "constant": true,
      "inputs": [],
      "name": "tokenBlogs",
      "outputs": [
        {
          "name": "",
          "type": "uint256"
        }
      ],
      "payable": false,
      "stateMutability": "view",
      "type": "function"
    },
    {
      "constant": true,
      "inputs": [
        {
          "name": "_owner",
          "type": "address"
        }
      ],
      "name": "balanceOf",
      "outputs": [
        {
          "name": "balance",
          "type": "uint256"
        }
      ],
      "payable": false,
      "stateMutability": "view",
      "type": "function"
    },
    {
      "constant": true,
      "inputs": [],
      "name": "tokenEmail",
      "outputs": [
        {
          "name": "",
          "type": "uint256"
        }
      ],
      "payable": false,
      "stateMutability": "view",
      "type": "function"
    },
    {
      "constant": true,
      "inputs": [],
      "name": "walletAvatar",
      "outputs": [
        {
          "name": "",
          "type": "address"
        }
      ],
      "payable": false,
      "stateMutability": "view",
      "type": "function"
    },
    {
      "constant": true,
      "inputs": [],
      "name": "tokenAdvisor",
      "outputs": [
        {
          "name": "",
          "type": "uint256"
        }
      ],
      "payable": false,
      "stateMutability": "view",
      "type": "function"
    },
    {
      "constant": true,
      "inputs": [],
      "name": "walletDev",
      "outputs": [
        {
          "name": "",
          "type": "address"
        }
      ],
      "payable": false,
      "stateMutability": "view",
      "type": "function"
    },
    {
      "constant": true,
      "inputs": [],
      "name": "owner",
      "outputs": [
        {
          "name": "",
          "type": "address"
        }
      ],
      "payable": false,
      "stateMutability": "view",
      "type": "function"
    },
    {
      "constant": true,
      "inputs": [],
      "name": "symbol",
      "outputs": [
        {
          "name": "",
          "type": "string"
        }
      ],
      "payable": false,
      "stateMutability": "view",
      "type": "function"
    },
    {
      "constant": true,
      "inputs": [],
      "name": "walletEmail",
      "outputs": [
        {
          "name": "",
          "type": "address"
        }
      ],
      "payable": false,
      "stateMutability": "view",
      "type": "function"
    },
    {
      "constant": true,
      "inputs": [],
      "name": "tokenICO",
      "outputs": [
        {
          "name": "",
          "type": "uint256"
        }
      ],
      "payable": false,
      "stateMutability": "view",
      "type": "function"
    },
    {
      "constant": false,
      "inputs": [
        {
          "name": "_to",
          "type": "address"
        },
        {
          "name": "_value",
          "type": "uint256"
        }
      ],
      "name": "transfer",
      "outputs": [
        {
          "name": "",
          "type": "bool"
        }
      ],
      "payable": false,
      "stateMutability": "nonpayable",
      "type": "function"
    },
    {
      "constant": true,
      "inputs": [],
      "name": "tokenTranslate",
      "outputs": [
        {
          "name": "",
          "type": "uint256"
        }
      ],
      "payable": false,
      "stateMutability": "view",
      "type": "function"
    },
    {
      "constant": true,
      "inputs": [],
      "name": "tokenTwitter",
      "outputs": [
        {
          "name": "",
          "type": "uint256"
        }
      ],
      "payable": false,
      "stateMutability": "view",
      "type": "function"
    },
    {
      "constant": true,
      "inputs": [],
      "name": "tokenAvatar",
      "outputs": [
        {
          "name": "",
          "type": "uint256"
        }
      ],
      "payable": false,
      "stateMutability": "view",
      "type": "function"
    },
    {
      "constant": true,
      "inputs": [],
      "name": "walletAdvisor",
      "outputs": [
        {
          "name": "",
          "type": "address"
        }
      ],
      "payable": false,
      "stateMutability": "view",
      "type": "function"
    },
    {
      "constant": true,
      "inputs": [
        {
          "name": "_owner",
          "type": "address"
        },
        {
          "name": "_spender",
          "type": "address"
        }
      ],
      "name": "allowance",
      "outputs": [
        {
          "name": "remaining",
          "type": "uint256"
        }
      ],
      "payable": false,
      "stateMutability": "view",
      "type": "function"
    },
    {
      "constant": true,
      "inputs": [],
      "name": "timeFreezeTeamTokens",
      "outputs": [
        {
          "name": "",
          "type": "uint256"
        }
      ],
      "payable": false,
      "stateMutability": "view",
      "type": "function"
    },
    {
      "constant": false,
      "inputs": [
        {
          "name": "newOwner",
          "type": "address"
        }
      ],
      "name": "transferOwnership",
      "outputs": [],
      "payable": false,
      "stateMutability": "nonpayable",
      "type": "function"
    },
    {
      "constant": true,
      "inputs": [],
      "name": "walletTranslate",
      "outputs": [
        {
          "name": "",
          "type": "address"
        }
      ],
      "payable": false,
      "stateMutability": "view",
      "type": "function"
    },
    {
      "inputs": [],
      "payable": false,
      "stateMutability": "nonpayable",
      "type": "constructor"
    },
    {
      "anonymous": false,
      "inputs": [
        {
          "indexed": true,
          "name": "burner",
          "type": "address"
        },
        {
          "indexed": true,
          "name": "value",
          "type": "uint256"
        }
      ],
      "name": "Burn",
      "type": "event"
    },
    {
      "anonymous": false,
      "inputs": [
        {
          "indexed": true,
          "name": "owner",
          "type": "address"
        },
        {
          "indexed": true,
          "name": "spender",
          "type": "address"
        },
        {
          "indexed": false,
          "name": "value",
          "type": "uint256"
        }
      ],
      "name": "Approval",
      "type": "event"
    },
    {
      "anonymous": false,
      "inputs": [
        {
          "indexed": true,
          "name": "from",
          "type": "address"
        },
        {
          "indexed": true,
          "name": "to",
          "type": "address"
        },
        {
          "indexed": false,
          "name": "value",
          "type": "uint256"
        }
      ],
      "name": "Transfer",
      "type": "event"
    }
  ],
  "bytecode": "0x6060604052737ef1ac89b028a9bc20ce418c1e6973f4c7977eb0600260006101000a81548173ffffffffffffffffffffffffffffffffffffffff021916908373ffffffffffffffffffffffffffffffffffffffff160217905550738fff4a8c4f1bd333a215f072ef9aef934f677bfa600560006101000a81548173ffffffffffffffffffffffffffffffffffffffff021916908373ffffffffffffffffffffffffffffffffffffffff1602179055506012600a0a6301dfe39002600655737ef1ac89b028a9bc20ce418c1e6973f4c7977eb0600760006101000a81548173ffffffffffffffffffffffffffffffffffffffff021916908373ffffffffffffffffffffffffffffffffffffffff1602179055506012600a0a622d2a800260085573b6b01233ce7794d004af238b3a53a0fcb1c5d8bd600960006101000a81548173ffffffffffffffffffffffffffffffffffffffff021916908373ffffffffffffffffffffffffffffffffffffffff1602179055506012600a0a6216954002600a55739e6ba5600cf5f4656697e3af2a963f56f522991c600b60006101000a81548173ffffffffffffffffffffffffffffffffffffffff021916908373ffffffffffffffffffffffffffffffffffffffff1602179055506012600a0a6206c66002600c557343827ba49d8ebd20afd137791227d3139e5bd074600d60006101000a81548173ffffffffffffffffffffffffffffffffffffffff021916908373ffffffffffffffffffffffffffffffffffffffff1602179055506012600a0a62025f0802600e5573eff945e9f29ea8c7a94f84fb9ffd711d179ab520600f60006101000a81548173ffffffffffffffffffffffffffffffffffffffff021916908373ffffffffffffffffffffffffffffffffffffffff1602179055506012600a0a62025f08026010557316df4dc0dd47ddd47759d54957c021650c76aed1601160006101000a81548173ffffffffffffffffffffffffffffffffffffffff021916908373ffffffffffffffffffffffffffffffffffffffff1602179055506012600a0a620337d4026012557319a903405fdcce9b32f48882c698a3842f09253f601360006101000a81548173ffffffffffffffffffffffffffffffffffffffff021916908373ffffffffffffffffffffffffffffffffffffffff1602179055506012600a0a6202085002601455733912ae42372ff35f56d2f7f26313da7f48fe5248601560006101000a81548173ffffffffffffffffffffffffffffffffffffffff021916908373ffffffffffffffffffffffffffffffffffffffff1602179055506012600a0a612b5c0260165573f4e16e79102b19702cc10cbcc02c6ec0ccad8b1d601760006101000a81548173ffffffffffffffffffffffffffffffffffffffff021916908373ffffffffffffffffffffffffffffffffffffffff1602179055506012600a0a6117700260185534156200043857600080fd5b33600460006101000a81548173ffffffffffffffffffffffffffffffffffffffff021916908373ffffffffffffffffffffffffffffffffffffffff1602179055506012600a0a63023493400260008190555060065460016000600560009054906101000a900473ffffffffffffffffffffffffffffffffffffffff1673ffffffffffffffffffffffffffffffffffffffff1673ffffffffffffffffffffffffffffffffffffffff168152602001908152602001600020819055506200053630600560009054906101000a900473ffffffffffffffffffffffffffffffffffffffff16600062000b526401000000000262000cb2176401000000009004565b5060085460016000600760009054906101000a900473ffffffffffffffffffffffffffffffffffffffff1673ffffffffffffffffffffffffffffffffffffffff1673ffffffffffffffffffffffffffffffffffffffff16815260200190815260200160002081905550620005e330600760009054906101000a900473ffffffffffffffffffffffffffffffffffffffff16600062000b526401000000000262000cb2176401000000009004565b50600a5460016000600960009054906101000a900473ffffffffffffffffffffffffffffffffffffffff1673ffffffffffffffffffffffffffffffffffffffff1673ffffffffffffffffffffffffffffffffffffffff168152602001908152602001600020819055506200069030600960009054906101000a900473ffffffffffffffffffffffffffffffffffffffff16600062000b526401000000000262000cb2176401000000009004565b5060185460016000601760009054906101000a900473ffffffffffffffffffffffffffffffffffffffff1673ffffffffffffffffffffffffffffffffffffffff1673ffffffffffffffffffffffffffffffffffffffff168152602001908152602001600020819055506200073d30601760009054906101000a900473ffffffffffffffffffffffffffffffffffffffff16600062000b526401000000000262000cb2176401000000009004565b50600c5460016000600b60009054906101000a900473ffffffffffffffffffffffffffffffffffffffff1673ffffffffffffffffffffffffffffffffffffffff1673ffffffffffffffffffffffffffffffffffffffff16815260200190815260200160002081905550620007ea30600b60009054906101000a900473ffffffffffffffffffffffffffffffffffffffff16600062000b526401000000000262000cb2176401000000009004565b50600e5460016000600d60009054906101000a900473ffffffffffffffffffffffffffffffffffffffff1673ffffffffffffffffffffffffffffffffffffffff1673ffffffffffffffffffffffffffffffffffffffff168152602001908152602001600020819055506200089730600d60009054906101000a900473ffffffffffffffffffffffffffffffffffffffff16600062000b526401000000000262000cb2176401000000009004565b5060105460016000600f60009054906101000a900473ffffffffffffffffffffffffffffffffffffffff1673ffffffffffffffffffffffffffffffffffffffff1673ffffffffffffffffffffffffffffffffffffffff168152602001908152602001600020819055506200094430600f60009054906101000a900473ffffffffffffffffffffffffffffffffffffffff16600062000b526401000000000262000cb2176401000000009004565b5060125460016000601160009054906101000a900473ffffffffffffffffffffffffffffffffffffffff1673ffffffffffffffffffffffffffffffffffffffff1673ffffffffffffffffffffffffffffffffffffffff16815260200190815260200160002081905550620009f130601160009054906101000a900473ffffffffffffffffffffffffffffffffffffffff16600062000b526401000000000262000cb2176401000000009004565b5060145460016000601360009054906101000a900473ffffffffffffffffffffffffffffffffffffffff1673ffffffffffffffffffffffffffffffffffffffff1673ffffffffffffffffffffffffffffffffffffffff1681526020019081526020016000208190555062000a9e30601360009054906101000a900473ffffffffffffffffffffffffffffffffffffffff16600062000b526401000000000262000cb2176401000000009004565b5060165460016000601560009054906101000a900473ffffffffffffffffffffffffffffffffffffffff1673ffffffffffffffffffffffffffffffffffffffff1673ffffffffffffffffffffffffffffffffffffffff1681526020019081526020016000208190555062000b4b30601560009054906101000a900473ffffffffffffffffffffffffffffffffffffffff16600062000b526401000000000262000cb2176401000000009004565b5062000ed6565b600080600260009054906101000a900473ffffffffffffffffffffffffffffffffffffffff1673ffffffffffffffffffffffffffffffffffffffff163373ffffffffffffffffffffffffffffffffffffffff16141562000bc057635bd8f0804211151562000bbf57600080fd5b5b600360008673ffffffffffffffffffffffffffffffffffffffff1673ffffffffffffffffffffffffffffffffffffffff16815260200190815260200160002060003373ffffffffffffffffffffffffffffffffffffffff1673ffffffffffffffffffffffffffffffffffffffff16815260200190815260200160002054905062000ca183600160008773ffffffffffffffffffffffffffffffffffffffff1673ffffffffffffffffffffffffffffffffffffffff1681526020019081526020016000205462000e9d6401000000000262001694179091906401000000009004565b600160008673ffffffffffffffffffffffffffffffffffffffff1673ffffffffffffffffffffffffffffffffffffffff1681526020019081526020016000208190555062000d4683600160008873ffffffffffffffffffffffffffffffffffffffff1673ffffffffffffffffffffffffffffffffffffffff1681526020019081526020016000205462000ebc64010000000002620016b2179091906401000000009004565b600160008773ffffffffffffffffffffffffffffffffffffffff1673ffffffffffffffffffffffffffffffffffffffff1681526020019081526020016000208190555062000dac838262000ebc64010000000002620016b2179091906401000000009004565b600360008773ffffffffffffffffffffffffffffffffffffffff1673ffffffffffffffffffffffffffffffffffffffff16815260200190815260200160002060003373ffffffffffffffffffffffffffffffffffffffff1673ffffffffffffffffffffffffffffffffffffffff168152602001908152602001600020819055508373ffffffffffffffffffffffffffffffffffffffff168573ffffffffffffffffffffffffffffffffffffffff167fddf252ad1be2c89b69c2b068fc378daa952ba7f163c4a11628f55a4df523b3ef856040518082815260200191505060405180910390a360019150509392505050565b600080828401905083811015151562000eb257fe5b8091505092915050565b600082821115151562000ecb57fe5b818303905092915050565b6116f78062000ee66000396000f3006060604052600436106101a1576000357c0100000000000000000000000000000000000000000000000000000000900463ffffffff16806306fdde03146101a6578063095ea7b3146102345780631464bc451461028e57806318160ddd146102e3578063228acf2f1461030c57806323b872dd14610335578063313ce567146103ae57806332c0f801146103d75780633b4e8dbf1461040057806342966c68146104295780635579ff8e1461044c5780635999d385146104a157806360c2db45146104f6578063688ba6361461054b5780636e07979d146105a057806370a08231146105c9578063788222ae146106165780638719715e1461063f5780638bfa4b4e146106945780638c254c0b146106bd5780638da5cb5b1461071257806395d89b41146107675780639e20f6c9146107f55780639e4a5ade1461084a578063a9059cbb14610873578063bd9b6e85146108cd578063c1c379ac146108f6578063ccbd8d291461091f578063cd2d529114610948578063dd62ed3e1461099d578063e27f385314610a09578063f2fde38b14610a32578063ff30feef14610a6b575b600080fd5b34156101b157600080fd5b6101b9610ac0565b6040518080602001828103825283818151815260200191508051906020019080838360005b838110156101f95780820151818401526020810190506101de565b50505050905090810190601f1680156102265780820380516001836020036101000a031916815260200191505b509250505060405180910390f35b341561023f57600080fd5b610274600480803573ffffffffffffffffffffffffffffffffffffffff16906020019091908035906020019091905050610af9565b604051808215151515815260200191505060405180910390f35b341561029957600080fd5b6102a1610c80565b604051808273ffffffffffffffffffffffffffffffffffffffff1673ffffffffffffffffffffffffffffffffffffffff16815260200191505060405180910390f35b34156102ee57600080fd5b6102f6610ca6565b6040518082815260200191505060405180910390f35b341561031757600080fd5b61031f610cac565b6040518082815260200191505060405180910390f35b341561034057600080fd5b610394600480803573ffffffffffffffffffffffffffffffffffffffff1690602001909190803573ffffffffffffffffffffffffffffffffffffffff16906020019091908035906020019091905050610cb2565b604051808215151515815260200191505060405180910390f35b34156103b957600080fd5b6103c1610fcb565b6040518082815260200191505060405180910390f35b34156103e257600080fd5b6103ea610fd0565b6040518082815260200191505060405180910390f35b341561040b57600080fd5b610413610fd6565b6040518082815260200191505060405180910390f35b341561043457600080fd5b61044a6004808035906020019091905050610fdc565b005b341561045757600080fd5b61045f6110e7565b604051808273ffffffffffffffffffffffffffffffffffffffff1673ffffffffffffffffffffffffffffffffffffffff16815260200191505060405180910390f35b34156104ac57600080fd5b6104b461110d565b604051808273ffffffffffffffffffffffffffffffffffffffff1673ffffffffffffffffffffffffffffffffffffffff16815260200191505060405180910390f35b341561050157600080fd5b610509611133565b604051808273ffffffffffffffffffffffffffffffffffffffff1673ffffffffffffffffffffffffffffffffffffffff16815260200191505060405180910390f35b341561055657600080fd5b61055e611159565b604051808273ffffffffffffffffffffffffffffffffffffffff1673ffffffffffffffffffffffffffffffffffffffff16815260200191505060405180910390f35b34156105ab57600080fd5b6105b361117f565b6040518082815260200191505060405180910390f35b34156105d457600080fd5b610600600480803573ffffffffffffffffffffffffffffffffffffffff16906020019091905050611185565b6040518082815260200191505060405180910390f35b341561062157600080fd5b6106296111ce565b6040518082815260200191505060405180910390f35b341561064a57600080fd5b6106526111d4565b604051808273ffffffffffffffffffffffffffffffffffffffff1673ffffffffffffffffffffffffffffffffffffffff16815260200191505060405180910390f35b341561069f57600080fd5b6106a76111fa565b6040518082815260200191505060405180910390f35b34156106c857600080fd5b6106d0611200565b604051808273ffffffffffffffffffffffffffffffffffffffff1673ffffffffffffffffffffffffffffffffffffffff16815260200191505060405180910390f35b341561071d57600080fd5b610725611226565b604051808273ffffffffffffffffffffffffffffffffffffffff1673ffffffffffffffffffffffffffffffffffffffff16815260200191505060405180910390f35b341561077257600080fd5b61077a61124c565b6040518080602001828103825283818151815260200191508051906020019080838360005b838110156107ba57808201518184015260208101905061079f565b50505050905090810190601f1680156107e75780820380516001836020036101000a031916815260200191505b509250505060405180910390f35b341561080057600080fd5b610808611285565b604051808273ffffffffffffffffffffffffffffffffffffffff1673ffffffffffffffffffffffffffffffffffffffff16815260200191505060405180910390f35b341561085557600080fd5b61085d6112ab565b6040518082815260200191505060405180910390f35b341561087e57600080fd5b6108b3600480803573ffffffffffffffffffffffffffffffffffffffff169060200190919080359060200190919050506112b1565b604051808215151515815260200191505060405180910390f35b34156108d857600080fd5b6108e06114cb565b6040518082815260200191505060405180910390f35b341561090157600080fd5b6109096114d1565b6040518082815260200191505060405180910390f35b341561092a57600080fd5b6109326114d7565b6040518082815260200191505060405180910390f35b341561095357600080fd5b61095b6114dd565b604051808273ffffffffffffffffffffffffffffffffffffffff1673ffffffffffffffffffffffffffffffffffffffff16815260200191505060405180910390f35b34156109a857600080fd5b6109f3600480803573ffffffffffffffffffffffffffffffffffffffff1690602001909190803573ffffffffffffffffffffffffffffffffffffffff16906020019091905050611503565b6040518082815260200191505060405180910390f35b3415610a1457600080fd5b610a1c61158a565b6040518082815260200191505060405180910390f35b3415610a3d57600080fd5b610a69600480803573ffffffffffffffffffffffffffffffffffffffff16906020019091905050611592565b005b3415610a7657600080fd5b610a7e61166e565b604051808273ffffffffffffffffffffffffffffffffffffffff1673ffffffffffffffffffffffffffffffffffffffff16815260200191505060405180910390f35b6040805190810160405280600781526020017f4c6f616e4269740000000000000000000000000000000000000000000000000081525081565b600080821480610b8557506000600360003373ffffffffffffffffffffffffffffffffffffffff1673ffffffffffffffffffffffffffffffffffffffff16815260200190815260200160002060008573ffffffffffffffffffffffffffffffffffffffff1673ffffffffffffffffffffffffffffffffffffffff16815260200190815260200160002054145b1515610b9057600080fd5b81600360003373ffffffffffffffffffffffffffffffffffffffff1673ffffffffffffffffffffffffffffffffffffffff16815260200190815260200160002060008573ffffffffffffffffffffffffffffffffffffffff1673ffffffffffffffffffffffffffffffffffffffff168152602001908152602001600020819055508273ffffffffffffffffffffffffffffffffffffffff163373ffffffffffffffffffffffffffffffffffffffff167f8c5be1e5ebec7d5bd14f71427d1e84f3dd0314c0f7b2291e5b200ac8c7c3b925846040518082815260200191505060405180910390a36001905092915050565b600d60009054906101000a900473ffffffffffffffffffffffffffffffffffffffff1681565b60005481565b60085481565b600080600260009054906101000a900473ffffffffffffffffffffffffffffffffffffffff1673ffffffffffffffffffffffffffffffffffffffff163373ffffffffffffffffffffffffffffffffffffffff161415610d1e57635bd8f08042111515610d1d57600080fd5b5b600360008673ffffffffffffffffffffffffffffffffffffffff1673ffffffffffffffffffffffffffffffffffffffff16815260200190815260200160002060003373ffffffffffffffffffffffffffffffffffffffff1673ffffffffffffffffffffffffffffffffffffffff168152602001908152602001600020549050610def83600160008773ffffffffffffffffffffffffffffffffffffffff1673ffffffffffffffffffffffffffffffffffffffff1681526020019081526020016000205461169490919063ffffffff16565b600160008673ffffffffffffffffffffffffffffffffffffffff1673ffffffffffffffffffffffffffffffffffffffff16815260200190815260200160002081905550610e8483600160008873ffffffffffffffffffffffffffffffffffffffff1673ffffffffffffffffffffffffffffffffffffffff168152602001908152602001600020546116b290919063ffffffff16565b600160008773ffffffffffffffffffffffffffffffffffffffff1673ffffffffffffffffffffffffffffffffffffffff16815260200190815260200160002081905550610eda83826116b290919063ffffffff16565b600360008773ffffffffffffffffffffffffffffffffffffffff1673ffffffffffffffffffffffffffffffffffffffff16815260200190815260200160002060003373ffffffffffffffffffffffffffffffffffffffff1673ffffffffffffffffffffffffffffffffffffffff168152602001908152602001600020819055508373ffffffffffffffffffffffffffffffffffffffff168573ffffffffffffffffffffffffffffffffffffffff167fddf252ad1be2c89b69c2b068fc378daa952ba7f163c4a11628f55a4df523b3ef856040518082815260200191505060405180910390a360019150509392505050565b601281565b600e5481565b60185481565b60008082111515610fec57600080fd5b33905061104182600160008473ffffffffffffffffffffffffffffffffffffffff1673ffffffffffffffffffffffffffffffffffffffff168152602001908152602001600020546116b290919063ffffffff16565b600160008373ffffffffffffffffffffffffffffffffffffffff1673ffffffffffffffffffffffffffffffffffffffff16815260200190815260200160002081905550611099826000546116b290919063ffffffff16565b600081905550818173ffffffffffffffffffffffffffffffffffffffff167fcc16f5dbb4873280815c1ee09dbd06736cffcc184412cf7a71a0fdb75d397ca560405160405180910390a35050565b601160009054906101000a900473ffffffffffffffffffffffffffffffffffffffff1681565b600560009054906101000a900473ffffffffffffffffffffffffffffffffffffffff1681565b600f60009054906101000a900473ffffffffffffffffffffffffffffffffffffffff1681565b600760009054906101000a900473ffffffffffffffffffffffffffffffffffffffff1681565b60125481565b6000600160008373ffffffffffffffffffffffffffffffffffffffff1673ffffffffffffffffffffffffffffffffffffffff168152602001908152602001600020549050919050565b60165481565b600b60009054906101000a900473ffffffffffffffffffffffffffffffffffffffff1681565b600a5481565b601760009054906101000a900473ffffffffffffffffffffffffffffffffffffffff1681565b600460009054906101000a900473ffffffffffffffffffffffffffffffffffffffff1681565b6040805190810160405280600381526020017f4c4254000000000000000000000000000000000000000000000000000000000081525081565b601560009054906101000a900473ffffffffffffffffffffffffffffffffffffffff1681565b60065481565b6000600260009054906101000a900473ffffffffffffffffffffffffffffffffffffffff1673ffffffffffffffffffffffffffffffffffffffff163373ffffffffffffffffffffffffffffffffffffffff16141561131c57635bd8f0804211151561131b57600080fd5b5b60406004810160003690501015151561133157fe5b61138383600160003373ffffffffffffffffffffffffffffffffffffffff1673ffffffffffffffffffffffffffffffffffffffff168152602001908152602001600020546116b290919063ffffffff16565b600160003373ffffffffffffffffffffffffffffffffffffffff1673ffffffffffffffffffffffffffffffffffffffff1681526020019081526020016000208190555061141883600160008773ffffffffffffffffffffffffffffffffffffffff1673ffffffffffffffffffffffffffffffffffffffff1681526020019081526020016000205461169490919063ffffffff16565b600160008673ffffffffffffffffffffffffffffffffffffffff1673ffffffffffffffffffffffffffffffffffffffff168152602001908152602001600020819055508373ffffffffffffffffffffffffffffffffffffffff163373ffffffffffffffffffffffffffffffffffffffff167fddf252ad1be2c89b69c2b068fc378daa952ba7f163c4a11628f55a4df523b3ef856040518082815260200191505060405180910390a3600191505092915050565b60145481565b60105481565b600c5481565b600960009054906101000a900473ffffffffffffffffffffffffffffffffffffffff1681565b6000600360008473ffffffffffffffffffffffffffffffffffffffff1673ffffffffffffffffffffffffffffffffffffffff16815260200190815260200160002060008373ffffffffffffffffffffffffffffffffffffffff1673ffffffffffffffffffffffffffffffffffffffff16815260200190815260200160002054905092915050565b635bd8f08081565b600460009054906101000a900473ffffffffffffffffffffffffffffffffffffffff1673ffffffffffffffffffffffffffffffffffffffff163373ffffffffffffffffffffffffffffffffffffffff161415156115ee57600080fd5b600073ffffffffffffffffffffffffffffffffffffffff168173ffffffffffffffffffffffffffffffffffffffff161415151561162a57600080fd5b80600460006101000a81548173ffffffffffffffffffffffffffffffffffffffff021916908373ffffffffffffffffffffffffffffffffffffffff16021790555050565b601360009054906101000a900473ffffffffffffffffffffffffffffffffffffffff1681565b60008082840190508381101515156116a857fe5b8091505092915050565b60008282111515156116c057fe5b8183039050929150505600a165627a7a72305820af4f0e81a21fdb48ae00d42b8c0807f3910838c182c898c1bdfbc6105cca57cb0029",
  "source": "pragma solidity 0.4.18;\r\n\r\n/**\r\n * @title ERC20Basic\r\n * @dev Simpler version of ERC20 interface\r\n * @dev see https://github.com/ethereum/EIPs/issues/179\r\n */\r\ncontract ERC20Basic {\r\n  uint256 public totalSupply;\r\n  function balanceOf(address who) view public returns (uint256);\r\n  function transfer(address to, uint256 value) public returns (bool);\r\n  event Transfer(address indexed from, address indexed to, uint256 value);\r\n}\r\n\r\n/**\r\n * @title ERC20 interface\r\n * @dev see https://github.com/ethereum/EIPs/issues/20\r\n */\r\ncontract ERC20 is ERC20Basic {\r\n  function allowance(address owner, address spender) view public returns (uint256);\r\n  function transferFrom(address from, address to, uint256 value) public returns (bool);\r\n  function approve(address spender, uint256 value) public returns (bool);\r\n  event Approval(address indexed owner, address indexed spender, uint256 value);\r\n}\r\n\r\n/**\r\n * @title SafeMath\r\n * @dev Math operations with safety checks that throw on error\r\n */\r\nlibrary SafeMath {\r\n    \r\n  function mul(uint256 a, uint256 b) internal pure returns (uint256) {\r\n    uint256 c = a * b;\r\n    assert(a == 0 || c / a == b);\r\n    return c;\r\n  }\r\n\r\n  function div(uint256 a, uint256 b) internal pure returns (uint256) {\r\n    // assert(b > 0); // Solidity automatically throws when dividing by 0\r\n    uint256 c = a / b;\r\n    // assert(a == b * c + a % b); // There is no case in which this doesn't hold\r\n    return c;\r\n  }\r\n\r\n  function sub(uint256 a, uint256 b) internal pure returns (uint256) {\r\n    assert(b <= a);\r\n    return a - b;\r\n  }\r\n\r\n  function add(uint256 a, uint256 b) internal pure returns (uint256) {\r\n    uint256 c = a + b;\r\n    assert(c >= a);\r\n    return c;\r\n  }\r\n  \r\n}\r\n\r\n/**\r\n * @title Basic token\r\n * @dev Basic version of StandardToken, with no allowances. \r\n */\r\ncontract BasicToken is ERC20Basic {\r\n    \r\n  using SafeMath for uint256;\r\n\r\n  mapping(address => uint256) balances;\r\n  //     2018-10-31T00:00:00+00:00 in ISO 8601\r\n  uint public constant timeFreezeTeamTokens = 1540944000;\r\n  \r\n  address public walletTeam = 0x7eF1ac89B028A9Bc20Ce418c1e6973F4c7977eB0;\r\n\r\n  modifier onlyPayloadSize(uint size) {\r\n       assert(msg.data.length >= size + 4);\r\n       _;\r\n   }\r\n   \r\n   modifier canTransfer() {\r\n       if(msg.sender == walletTeam){\r\n          require(now > timeFreezeTeamTokens); \r\n       }\r\n        _;\r\n   }\r\n\r\n\r\n\r\n  /**\r\n  * @dev transfer token for a specified address\r\n  * @param _to The address to transfer to.\r\n  * @param _value The amount to be transferred.\r\n  */\r\n  function transfer(address _to, uint256 _value)canTransfer onlyPayloadSize(2 * 32) public returns (bool) {\r\n    balances[msg.sender] = balances[msg.sender].sub(_value);\r\n    balances[_to] = balances[_to].add(_value);\r\n    Transfer(msg.sender, _to, _value);\r\n    return true;\r\n  }\r\n\r\n  /**\r\n  * @dev Gets the balance of the specified address.\r\n  * @param _owner The address to query the the balance of. \r\n  * @return An uint256 representing the amount owned by the passed address.\r\n  */\r\n  function balanceOf(address _owner) view public returns (uint256 balance) {\r\n    return balances[_owner];\r\n  }\r\n\r\n}\r\n\r\n/**\r\n * @title Standard ERC20 token\r\n *\r\n * @dev Implementation of the basic standard token.\r\n * @dev https://github.com/ethereum/EIPs/issues/20\r\n * @dev Based on code by FirstBlood: https://github.com/Firstbloodio/token/blob/master/smart_contract/FirstBloodToken.sol\r\n */\r\ncontract StandardToken is ERC20, BasicToken {\r\n\r\n  mapping (address => mapping (address => uint256)) allowed;\r\n\r\n  /**\r\n   * @dev Transfer tokens from one address to another\r\n   * @param _from address The address which you want to send tokens from\r\n   * @param _to address The address which you want to transfer to\r\n   * @param _value uint256 the amout of tokens to be transfered\r\n   */\r\n  function transferFrom(address _from, address _to, uint256 _value)canTransfer public returns (bool) {\r\n    var _allowance = allowed[_from][msg.sender];\r\n\r\n    // Check is not needed because sub(_allowance, _value) will already throw if this condition is not met\r\n    // require (_value <= _allowance);\r\n\r\n    balances[_to] = balances[_to].add(_value);\r\n    balances[_from] = balances[_from].sub(_value);\r\n    allowed[_from][msg.sender] = _allowance.sub(_value);\r\n    Transfer(_from, _to, _value);\r\n    return true;\r\n  }\r\n\r\n  /**\r\n   * @dev Aprove the passed address to spend the specified amount of tokens on behalf of msg.sender.\r\n   * @param _spender The address which will spend the funds.\r\n   * @param _value The amount of tokens to be spent.\r\n   */\r\n  function approve(address _spender, uint256 _value) public returns (bool) {\r\n\r\n    // To change the approve amount you first have to reduce the addresses`\r\n    //  allowance to zero by calling `approve(_spender, 0)` if it is not\r\n    //  already 0 to mitigate the race condition described here:\r\n    //  https://github.com/ethereum/EIPs/issues/20#issuecomment-263524729\r\n    require((_value == 0) || (allowed[msg.sender][_spender] == 0));\r\n\r\n    allowed[msg.sender][_spender] = _value;\r\n    Approval(msg.sender, _spender, _value);\r\n    return true;\r\n  }\r\n\r\n  /**\r\n   * @dev Function to check the amount of tokens that an owner allowed to a spender.\r\n   * @param _owner address The address which owns the funds.\r\n   * @param _spender address The address which will spend the funds.\r\n   * @return A uint256 specifing the amount of tokens still available for the spender.\r\n   */\r\n  function allowance(address _owner, address _spender) view public returns (uint256 remaining) {\r\n    return allowed[_owner][_spender];\r\n  }\r\n\r\n}\r\n\r\n/**\r\n * @title Ownable\r\n * @dev The Ownable contract has an owner address, and provides basic authorization control\r\n * functions, this simplifies the implementation of \"user permissions\".\r\n */\r\ncontract Ownable {\r\n    \r\n  address public owner;\r\n\r\n  /**\r\n   * @dev The Ownable constructor sets the original `owner` of the contract to the sender\r\n   * account.\r\n   */\r\n  function Ownable() public{\r\n    owner = msg.sender;\r\n  }\r\n\r\n  /**\r\n   * @dev Throws if called by any account other than the owner.\r\n   */\r\n  modifier onlyOwner() {\r\n    require(msg.sender == owner);\r\n    _;\r\n  }\r\n\r\n  /**\r\n   * @dev Allows the current owner to transfer control of the contract to a newOwner.\r\n   * @param newOwner The address to transfer ownership to.\r\n   */\r\n  function transferOwnership(address newOwner) onlyOwner public{\r\n    require(newOwner != address(0));      \r\n    owner = newOwner;\r\n  }\r\n\r\n}\r\n\r\n/**\r\n * @title Burnable Token\r\n * @dev Token that can be irreversibly burned (destroyed).\r\n */\r\ncontract BurnableToken is StandardToken {\r\n \r\n  /**\r\n   * @dev Burns a specific amount of tokens.\r\n   * @param _value The amount of token to be burned.\r\n   */\r\n  function burn(uint _value) public {\r\n    require(_value > 0);\r\n    address burner = msg.sender;\r\n    balances[burner] = balances[burner].sub(_value);\r\n    totalSupply = totalSupply.sub(_value);\r\n    Burn(burner, _value);\r\n  }\r\n \r\n  event Burn(address indexed burner, uint indexed value);\r\n \r\n}\r\n\r\n/**\r\n* @dev https://t.me/devKatAlexeeva\r\n*/\r\n\r\ncontract LoanBit is BurnableToken, Ownable {\r\n    \r\n    string public constant name = \"LoanBit\";\r\n    \r\n    string public constant symbol = \"LBT\";\r\n    \r\n    uint public constant decimals = 18;\r\n    \r\n    \r\n    \r\n    //  \r\n    address public walletICO =     0x8ffF4a8c4F1bd333a215f072ef9AEF934F677bFa;\r\n    uint public tokenICO = 31450000*10**decimals; \r\n    address public walletTeam =    0x7eF1ac89B028A9Bc20Ce418c1e6973F4c7977eB0;\r\n    uint public tokenTeam = 2960000*10**decimals; \r\n    address public walletAdvisor = 0xB6B01233cE7794D004aF238b3A53A0FcB1c5D8BD;\r\n    uint public tokenAdvisor = 1480000*10**decimals; \r\n    \r\n    //   \r\n    \r\n    address public walletAvatar =   0x9E6bA5600cF5f4656697E3aF2A963f56f522991C;\r\n    uint public tokenAvatar = 444000*10**decimals;\r\n    address public walletFacebook = 0x43827ba49d8eBd20afD137791227d3139E5BD074;\r\n    uint public tokenFacebook = 155400*10**decimals;\r\n    address public walletTwitter =  0xeFF945E9F29eA8c7a94F84Fb9fFd711d179ab520;\r\n    uint public tokenTwitter = 155400*10**decimals;\r\n    address public walletBlogs   =  0x16Df4Dc0Dd47dDD47759d54957C021650c76aed1;\r\n    uint public tokenBlogs = 210900*10**decimals;\r\n    address public walletTranslate =  0x19A903405fDcce9b32f48882C698A3842f09253F;\r\n    uint public tokenTranslate = 133200*10**decimals;\r\n    address public walletEmail   =  0x3912AE42372ff35f56d2f7f26313da7F48Fe5248;\r\n    uint public tokenEmail = 11100*10**decimals;\r\n    \r\n    // \r\n    address public walletDev = 0xF4e16e79102B19702Cc10Cbcc02c6EC0CcAD8b1D;\r\n    uint public tokenDev = 6000*10**decimals;\r\n    \r\n    function LoanBit()public{\r\n        \r\n        totalSupply = 37000000*10**decimals;\r\n        \r\n        balances[walletICO] = tokenICO;\r\n        transferFrom(this,walletICO, 0);\r\n        \r\n        \r\n        balances[walletTeam] = tokenTeam;\r\n        transferFrom(this,walletTeam, 0);\r\n        \r\n        \r\n        balances[walletAdvisor] = tokenAdvisor;\r\n        transferFrom(this,walletAdvisor, 0);\r\n        \r\n        balances[walletDev] = tokenDev;\r\n        transferFrom(this,walletDev, 0);\r\n        \r\n        balances[walletAvatar] = tokenAvatar;\r\n        transferFrom(this,walletAvatar, 0);\r\n        \r\n        balances[walletFacebook] = tokenFacebook;\r\n        transferFrom(this,walletFacebook, 0);\r\n        \r\n        balances[walletTwitter] = tokenTwitter;\r\n        transferFrom(this,walletTwitter, 0);\r\n        \r\n        balances[walletBlogs] = tokenBlogs;\r\n        transferFrom(this,walletBlogs, 0);\r\n        \r\n        balances[walletTranslate] = tokenTranslate;\r\n        transferFrom(this,walletTranslate, 0);\r\n        \r\n        balances[walletEmail] = tokenEmail;\r\n        transferFrom(this,walletEmail, 0);\r\n        \r\n    }\r\n    \r\n   \r\n}\r\n\r\n\r\n\r\n    \r\n\r\n\r\n\r\n",
  "sourcePath": "D:\\contract\\contracts\\LoanBit.sol",
  "compiler": {
    "name": "solc",
    "version": "0.4.18+commit.9cf6e910.Emscripten.clang"
  },
  "schemaVersion": "1.0.1",
  "updatedAt": "2018-04-09T15:26:50.096Z"
}